:100000000C942A000C943C000C943C000C943C0092
:100010000C943C000C943C000C943C000C94ED00BF
:100020000C943C000C943C000C943C000C943C0060
:100030000C943C000C943C000C943C000C943C0050
:100040000C943C000C943C000C943C000C943C0040
:100050000C943C0011241FBECFE5D8E0DEBFCDBF1D
:1000600020E0A0E6B0E001C01D92A836B207E1F79B
:100070000E94C5000C9416010C9400008130C1F45C
:10008000413059F427B381E090E002C0880F991FF6
:100090006A95E2F7822B87BB089527B381E090E051
:1000A00002C0880F991F6A95E2F78095822387BB6B
:1000B0000895813051F428B381E090E002C0880FA8
:1000C000991F6A95E2F7822788BB08958FB78068E9
:1000D0008FBF08950E94D70062E085E890E00E94FB
:1000E000E6000E94E5000E946600089560E081E05D
:1000F0000E945900089561E081E00E94590008952E
:1001000062E081E00E94590008958091640090911E
:100110006500019690936500809364008091620071
:1001200090916300019690936300809362008091A8
:10013000600090916100019690936100809360004F
:1001400080916400909165000A9730F010926500EC
:10015000109264000E94760080916200909163008A
:10016000449730F010926300109262000E947B006E
:100170008091600090916100C29730F01092610010
:10018000109260000E948000089541E060E081E0EC
:100190000E943E0041E061E081E00E943E0041E0BB
:1001A00062E081E00E943E000E946A00FFCF8EB5AF
:1001B00088608EBD8EB583608EBD89EF90E09BBD5B
:1001C0008ABD89B7806189BF08950895623021F49E
:1001D000909367008093660008951F920F920FB668
:1001E0000F9211242F933F934F935F936F937F93BD
:1001F0008F939F93AF93BF93EF93FF93E09166002C
:10020000F0916700309709F00995FF91EF91BF9148
:10021000AF919F918F917F916F915F914F913F919E
:100220002F910F900FBE0F901F901895F894FFCF4D
:00000001FF
